:100000000C948E010C94AB010C94AB010C94AB01DD
:100010000C94AB010C94FD0C0C94AB010C94AB0153
:100020000C94AB010C94AB010C94AB010C94AB01A0
:100030000C94AB010C94AB010C94AB010C94AB0190
:100040000C94DF240C94AB010C942A080C94DA076E
:100050000C94AB010C94AB010C94AB010C94AB0170
:100060000C94AB010C94AB0105A84CCDB2D44EB9A5
:100070003836A9020C50B9918688083CA6AAAA2A4B
:10008000BE000000803F07634236B79BD8A71A39ED
:10009000685618AEBAAB558C1D3CB7CC5763BD6DD6
:1000A000EDFD753EF6177231BF000000803F08007D
:1000B0000000BE922449123EABAAAA2ABECDCCCCE7
:1000C0004C3E00000080BEABAAAAAA3E0000000081
:1000D000BF000000803F0000000000084178D3BB53
:1000E0004387D1133D190E3CC3BD4282AD2B3E6800
:1000F000EC8276BED98FE1A93E4C80EFFFBE01C4F1
:10010000FF7F3F0000000000506974636826526F53
:100110006C6C205000526F6C6C205000526F6C6CF5
:10012000204900526F6C6C20440050697463682051
:1001300050005069746368204900506974636820F6
:100140004400596177205000596177204900596176
:1001500077204400416C74205000416C74204900A9
:10016000416C7420440056656C20500056656C202C
:10017000490056656C2044004C6576656C20500043
:100180004C6576656C2049004C6576656C204400B2
:100190004D61672050005243205261746500524304
:1001A000204578706F00506974636826526F6C6CDC
:1001B0002052617465005961772052617465005462
:1001C00068726F74746C65205049440042617474A5
:1001D00020566F6C74000801B0023E011501B00298
:1001E0003E011C01B80243012301C00248012A015B
:1001F000B1023E013201B90243013A01C102480194
:100200004201B2023E014801BA0243014E01C2025C
:1002100048015401B3023E015A01BB02430160018F
:10022000C30248016601B4023E016C01BC024301F5
:100230007201C40248017801B6023E018001BE028B
:1002400043018801C60248019001B7023E019601B0
:10025000C8024D019E01C9025201A601CA02520103
:10026000B601CB025201BF01CC025201CC01CD023A
:100270005701457869740041626F7274696E670056
:10028000536176696E672E2E2E00202020202020BC
:100290002020202020202020202000436F6E66692F
:1002A0006720416C6C205061726D7300526561640F
:1002B0007920746F20466C79004D756C74695769AC
:1002C000690000000000240027002A000000000050
:1002D000250028002B000000000023002600290034
:1002E00004040404040404040202020202020303DC
:1002F00003030303010204081020408001020408E4
:100300001020010204081020000000070002010074
:1003100000030406000000000000000011241FBEBE
:10032000CFEFD8E0DEBFCDBF11E0A0E0B1E0E8E75D
:10033000F5E502C005900D92A63AB107D9F716E08F
:10034000A6EAB1E001C01D92AC37B107E1F70E9407
:1003500033260C94BA2A0C940000FB01DC010590B2
:100360000D920020E1F70895FB01DC0101900D9250
:100370000020E1F70895A0E0B0E0E1ECF1E00C949A
:100380008D2A7C01EB018A01690109C0CE01219609
:10039000F6010995F70181937F0101501040011585
:1003A0001105A1F7CDB7DEB7E8E00C94A92AA0E0CB
:1003B000B0E0EDEDF1E00C948D2AEC017B018A01B7
:1003C000690109C0CE012196F70161917F01F60113
:1003D00009950150104001151105A1F7CDB7DEB701
:1003E000E8E00C94A92A9C01F999FECF32BD21BD09
:1003F000F89A80B508959C01F999FECF1FBA32BDD5
:1004000021BD60BD0FB6F894FA9AF99A0FBE08950F
:10041000DF92EF92FF920F931F93DF93CF93CDB7AD
:10042000DEB728970FB6F894DEBF0FBECDBF698345
:100430007A838B839C832D833E834F8358870E94CE
:10044000AA267B018C0120E030E048EC52E40E94B7
:1004500013280E9412279B0177FF03C03095219536
:100460003F4FDD248C8187FF02C0DD24D3942436E6
:1004700031055CF52B303105D4F0C801B70129E214
:100480003CE54FE85EE30E941328A80197010E9413
:10049000132820E030E040E85FE30E9443269B0100
:1004A000AC01C801B7010E94AA267B018C01888596
:1004B00087FF33C0DD2039F5C801B7012BED3FE0E0
:1004C00049E450E40E94432626C0C801B701A801B0
:1004D00097010E94132829E23CE54FE85EE30E9461
:1004E00043269B01AC01C801B7010E94AA269B01CB
:1004F000AC016BED7FE089EC9FE30E9442267B011B
:100500008C01DD2051F0C801B7012BED3FE049E43B
:1005100050E40E9442267B018C01C801B7012CE403
:100520003DE34FE054E40E9413280E941227CB01C0
:1005300028960FB6F894DEBF0FBECDBFCF91DF91E6
:100540001F910F91FF90EF90DF9008952F923F92AF
:100550004F925F926F927F928F929F92AF92BF92D3
:10056000CF92DF92EF92FF920F931F93DF93CF937F
:1005700000D000D0CDB7DEB79A8389837C836B83AC
:10058000FC01A084B184C284D38424803580468059
:1005900057806080718082809380C401B301EB81B9
:1005A000FC8120813181428153810E9413287B018B
:1005B0008C01C201B101EB81FC812481358146812E
:1005C00057810E9413289B01AC01C801B7010E940A
:1005D00043269B01AC01C601B5010E944226E98178
:1005E000FA816087718782879387C601B501EB81A5
:1005F000FC8120813181428153810E9413287B013B
:100600008C01C201B101EB81FC81208531854285DD
:1006100053850E9413289B01AC01C801B7010E94B9
:1006200042269B01AC01C401B3010E944326E9812B
:10063000FA816083718382839383C601B501EB8164
:10064000FC8124813581468157810E9413287B01DA
:100650008C01C401B301EB81FC8120853185428589
:1006600053850E9413289B01AC01C801B7010E9469
:1006700043269B01AC01C201B1010E944326E981DE
:10068000FA8164837583868397830F900F900F9010
:100690000F90CF91DF911F910F91FF90EF90DF901E
:1006A000CF90BF90AF909F908F907F906F905F9012
:1006B0004F903F902F9008953F924F925F926F928C
:1006C0007F928F929F92AF92BF92CF92DF92EF92E2
:1006D000FF920F931F93CF93DF932091610430918A
:1006E00062044091630450916404809138019091B8
:1006F0003901A0913A01B0913B01281739074A0707
:100700005B0708F43EC128553E494F4F5F4F209389
:1007100038013093390140933A0150933B013090B6
:100720009105632C772467FC70948301000F111FDF
:100730000E561A4FF801C080D18060913F0470912D
:10074000400480914104909142042AE030E040E06E
:1007500050E00E94682A49015A01F8013183208340
:10076000C301449668E270E00E94332AE82FF0E06B
:10077000EE0FFF1FEE56FA4F20813181442737FDDF
:100780004095542F2401662457FC6094762C809168
:100790008D0590918E05A0918F05B0919005480E22
:1007A000591E6A1E7B1E421A530A640A750A409239
:1007B0008D0550928E0560928F0570929005EE2403
:1007C000D7FCE094FE2C8091890590918A05A09138
:1007D0008B05B0918C058C199D09AE09BF09820F5C
:1007E000931FA41FB51F8093890590938A05A0933A
:1007F0008B05B0938C05232D2F5F20939105283214
:1008000011F410929105A3019201281B390B4A0B98
:100810005B0BCA01B9012091C30230E040E050E017
:100820000E94F42928E230E040E050E00E94682A6B
:1008300000271127021B130B1093820500938105DB
:10084000C301B20122E030E040E050E00E94682A9B
:10085000C901DA018093E2039093E303A093E403D8
:10086000B093E50340908305509084056090850522
:1008700070908605481A590A6A0A7B0AD301C20198
:100880000996A11DB11D4397A105B10548F4075F65
:100890001F4F0331110520F410928205109281053B
:1008A000C0918105D09182052091B302622F70E042
:1008B000660F771F88279927861B970B7C010027D7
:1008C000F7FC0095102F4E145F046006710674F05B
:1008D000CB01AA2797FDA095BA2F83017201841539
:1008E0009505A605B70514F47C018D0130E040E0C4
:1008F00050E0C801B7010E94F42924E630E040E04E
:1009000050E00E94682A8E01020F131F073911055B
:1009100014F006E910E02091BB0230E040E050E026
:10092000C301B2010E94F42922E330E040E050E02C
:100930000E94682A8091870590918805820F931FF5
:1009400035E78133930714F080E395E74AE8803D6B
:10095000940714F480ED9AE89093880580938705B6
:1009600098015FEF0A36150714F42AE63FEF64EFAB
:1009700071E00E94332A260F371F3093820520939F
:100980008105DF91CF911F910F91FF90EF90DF9044
:10099000CF90BF90AF909F908F907F906F905F901F
:1009A0004F903F900895FC018081860F80830895C9
:1009B0000F931F93FC018081689F80011124C8015F
:1009C00064E670E00E941F2A9B01F62FF05DC801CB
:1009D0006AE070E00E941F2AE62FE05DC90153E043
:1009E000220F331F5A95E1F7880F991F280F391FDF
:1009F000E21BC8016AE070E00E941F2A982F905DF8
:100A0000413039F04130C8F0423059F04330D9F428
:100A10000EC0F0937205E09373058EE28093740527
:100A200010C0F09372058EE28093730508C080E3D6
:100A3000809371058EE280937205F0937305E093C5
:100A40007405909375051F910F910895209152059B
:100A500030915305809158059091590597FF03C037
:100A6000909581959F4FECE9FFEFE81BF90B2E174E
:100A70003F073CF0FC01EC59FF4F2E173F070CF4E9
:100A8000F901F0935305E093520580915A05909136
:100A90005B0540914E0550914F059C01241B350B81
:100AA0006091500570915105D901A60FB71FAE1B7B
:100AB000BF0BB093E903A093E803261B370B2E0F5F
:100AC0003F1F3093EB032093EA03480F591FCA01DD
:100AD000860F971F8E0F9F1F9093ED038093EC035B
:100AE000461B570B4E1B5F0B5093EF034093EE03D7
:100AF0002A173B070CF49D018091EC039091ED03C4
:100B0000281739070CF49C01241735070CF49A01B7
:100B10004091FE035091FF03A0910B04E8EEF3E037
:100B200064E873E087E0213D380744F080819181DB
:100B30008053984F821B930B918380838081918196
:100B4000B4E08E379B071CF48EE794E006C0B7E054
:100B5000813D9B0714F080ED97E09183808384E0D2
:100B60004C34580714F471836083AA2311F4718301
:100B700060833296B3E0E03FFB07A1F60895AF92A1
:100B8000BF92CF92DF92EF92FF920F931F93CF937A
:100B9000DF938091EC048F5F8093EC045DEEA52ED3
:100BA00054E0B52E0DEF14E0C8EFD3E0EE24FF249F
:100BB000C82EDD2483E0C822DD242FB7F894F70186
:100BC000EF58FE4FE081F0E0EE0FFF1FE85FFE4FB1
:100BD000808191812FBF7894F701EE0FFF1FEE0FF8
:100BE000FF1FEC0DFD1DEE0FFF1FE350FB4F918328
:100BF0008083F8018081918122813381820F931F4C
:100C000024813581820F931F26813781820F931FA4
:100C1000029664E070E00E94332A9B01F501718323
:100C200060838881998103976817790734F42E5F70
:100C30003F4F398328832250304088819981039621
:100C40008217930724F42250304039832883089474
:100C5000E11CF11C82E090E0A80EB91E085F1F4F56
:100C6000229698E0E916F10409F0A7CFDF91CF9121
:100C70001F910F91FF90EF90DF90CF90BF90AF90BA
:100C800008952F923F924F925F926F927F928F9230
:100C90009F92AF92BF92CF92DF92EF92FF920F930B
:100CA0001F936091A9047091AA0480E090E02091C4
:100CB000A7043091A80440E050E0621B730B840B42
:100CC000950B2091A5043091A60440E050E00E94CD
:100CD000F4297B018C013FE015950795F794E79483
:100CE0003A95D1F760919F047091A004882777FD11
:100CF0008095982F2BE0660F771F881F991F2A95E4
:100D0000D1F72091A1043091A204442737FD4095EA
:100D1000542F2E0D3F1D401F511F0E94682A39017C
:100D20004A0180E690EFAFEFBFEFE80EF91E0A1F11
:100D30001B1F6E0C7F1C801E911EC401B301A401F9
:100D400093010E94F4291B012C01BCE055944794A7
:100D500037942794BA95D1F7209195043091960451
:100D6000442737FD4095542FC401B3010E94F42954
:100D70005B016C01ABE0D594C794B794A794AA9596
:100D8000D1F78091930490919404AA2797FDA095A0
:100D9000BA2FF2E0880F991FAA1FBB1FFA95D1F74F
:100DA000A80EB91ECA1EDB1E20919B0430919C0424
:100DB000442737FD4095542FC201B1010E94F42908
:100DC000EBE09595879577956795EA95D1F7A60E0F
:100DD000B71EC81ED91E209197043091980444274D
:100DE00037FD4095542FC401B3010E94F4297B01C3
:100DF0008C015DE015950795F794E7945A95D1F726
:100E000082E090E0A0E0B0E0E80EF91E0A1F1B1F90
:100E10002091990430919A04442737FD4095542F2E
:100E2000C201B1010E94F429BC01992777FD909578
:100E3000892FE60EF71E081F191F32E0159507953A
:100E4000F794E7943A95D1F780E090E8A0E0B0E01D
:100E5000E80EF91E0A1F1B1F2091A3043091A40461
:100E600040E050E0C801B7010E94F4293B014C0169
:100E70002FE096948794779467942A95D1F7E09021
:100E8000AB04F090AC040091AD041091AE0496E078
:100E900016950795F794E7949A95D1F782E0AA0CF6
:100EA000BB1CCC1CDD1C8A95D1F782E090E0A0E051
:100EB000B0E0A80EB91ECA1EDB1EC601B50124E0B3
:100EC00030E040E050E00E94682AE21AF30A040B86
:100ED000150BC801B70124ED30E340E050E00E945B
:100EE000F42997FD0DC0660F771F881F991FA40175
:100EF00093010E94462AC901DA015C016D010AC012
:100F0000A40193010E94462A59016A01AA0CBB1C44
:100F1000CC1CDD1C5527D7FC5A954D2D3C2D2B2D77
:100F2000CA01B9010E94F4292EED3BE040E050E0F7
:100F30000E94F4297B018C01C601B50123E433EE44
:100F40004FEF5FEF0E94F429BC01992777FD909540
:100F5000892F6153714F8F4F9F4F78011127F7FCF5
:100F60001095012F6E0D7F1D801F911FE4E0959558
:100F7000879577956795EA95D1F76A0D7B1D8C1D4E
:100F80009D1D6093B4047093B5048093B604909350
:100F9000B7041F910F91FF90EF90DF90CF90BF901B
:100FA000AF909F908F907F906F905F904F903F9009
:100FB0002F9008951F920F920FB60F9211242F9326
:100FC0008F939F93EF93FF932091CE029091CF0246
:100FD000291751F0E92FF0E0E053FD4F8081809315
:100FE000C6009F5F9093CF028091CF02821729F4B1
:100FF0008091C1008F7D8093C100FF91EF919F91FF
:101000008F912F910F900FBE0F901F9018959A01FE
:10101000AB018823F1F460E079E08DE390E00E9479
:10102000462A2150304040405040569547953795CC
:10103000279582E08093C000BB27A52F942F832F94
:101040008093C5002093C4008091C100886980937B
:10105000C10008951F920F920FB60F9211242F9383
:101060008F939F93EF93FF932091C6009091AE02D0
:101070009F5F8091AF02981741F0E091AE02F0E0DF
:10108000E255FE4F20839093AE02FF91EF919F9126
:101090008F912F910F900FBE0F901F901895AF92C8
:1010A000BF92CF92DF92EF92FF920F931F93A82EE1
:1010B000B42E00E0C62EDD24EE24FF2411C01D9ABC
:1010C000289AC701B6010E944D2528981F5F1A155E
:1010D000B0F36CE370E080E090E00E944D250F5F7C
:1010E0000B1510F410E0F3CF1F910F91FF90EF90CC
:1010F000DF90CF90BF90AF900895EF92FF920F9343
:101100001F93CF93DF938091CE049091CF04892BCE
:1011100009F455C0C6EDD4E0E3E8EE2EE4E0FE2E7F
:1011200000ED14E06091CE047091CF0481E060394D
:10113000780721F4188219821A821B82F7018081B4
:1011400091819C01442737FD4095542F88819981D6
:10115000AA81BB81280F391F4A1F5B1F288339834F
:101160004A835B8311821082F80111821082613000
:10117000710581F4CA01B90120E931E040E050E095
:101180000E94682AF801318320838AE06FE041E001
:101190000E944F08249682E090E0E80EF91E0E5F50
:1011A0001F4F94E0C23ED90709F0BCCF8091CE0416
:1011B0009091CF0401979093CF048093CE04E3E8FD
:1011C000F4E0C0EDD4E0A2EEB4E02081318188816A
:1011D0009981281B390B4D915C911197CA0180525E
:1011E0009340281739073CF0CA01805E9C4F2817AE
:1011F00039070CF4C901819391938D939D932296A5
:1012000084E0E938F80709F7DF91CF911F910F913A
:10121000FF90EF9008952FEF30E019C0215030403B
:10122000B1F41092BC000E9427256093E8047093EB
:10123000E9048093EA049093EB0480910E0490916A
:101240000F04019690930F0480930E0408958091EB
:10125000BC0087FFE3CF08950F931F930CEB10E0C2
:1012600084E8F80180830E940B098091BB0094E917
:10127000F80190831F910F91089584EC8093BC0036
:101280000E940B098091BB0008958093BB0084E805
:101290008093BC000E940B090895FF920F931F9347
:1012A000F82E0CEB10E084EAF80180830E940B0911
:1012B000F092BB0084E8F80180830E940B091F9123
:1012C0000F91FF9008958FEE0E944D090E943D09F5
:1012D0008093AA040E942C098093A90408958FEE9C
:1012E0000E944D090E943D098093AD040E943D0972
:1012F0008093AC040E942C098093AB0408951F9343
:10130000182F8EEE0E944D09812F0E9445098FEE05
:101310000E944D090E943D09182F0E942C09912F0F
:101320001F9108956AE070E080E090E00E944D25F2
:101330008AEA0E947F0990939404809393048CEA34
:101340000E947F0990939604809395048EEA0E94F0
:101350007F09909398048093970480EB0E947F0903
:101360009093A4048093A30482EB0E947F0990933E
:10137000A6048093A50484EB0E947F099093A8049F
:101380008093A70486EB0E947F0990939A04809330
:10139000990488EB0E947F0990939C0480939B049E
:1013A0008AEB0E947F0990939E0480939D048CEBAE
:1013B0000E947F099093A00480939F048EEB0E946B
:1013C0007F099093A2048093A10408950F931F9323
:1013D000082F162F0E944D09812F0E944509802F4A
:1013E0008F5F0E944D090E942C091F910F91089553
:1013F0000F931F93162F042F0E944D09812F0E94D7
:101400004509802F0E94450984E98093BC001F9103
:101410000F91089564E670E080E090E00E944D2511
:1014200080ED6EE340E80E94F80965E070E080E03E
:1014300090E00E944D2580ED66E148E10E94F809A8
:1014400065E070E080E090E00E944D2580ED6EE365
:1014500043E00E94F80964E670E080E090E00E94BA
:101460004D2508956AE070E080E090E00E944D25EF
:1014700080E86DE040E10E94F80965E070E080E0FE
:1014800090E00E944D2580E860E20E94E609482F26
:101490004F70406180E860E20E94F80965E070E00A
:1014A00080E090E00E944D2580E860E30E94E6091C
:1014B000482F4C7F80E860E30E94F80965E070E007
:1014C00080E090E00E944D2580E865E30E94E609F7
:1014D000482F417F4A6080E865E30E94F80965E093
:1014E00070E080E090E00E944D258FEF90E09093B7
:1014F00059048093580408958EEE64EF44EB0E94E3
:10150000F8098EEE0E944D0986EF0E94450984E994
:101510008093BC0008958EEE64EF4EE20E94F809BD
:101520008EEE0E944D0986EF0E94450984E9809362
:10153000BC000895209161043091620440916304DD
:10154000509164048091B0049091B104A091B204D0
:10155000B091B304281739074A075B0708F497C00E
:101560002093B0043093B1044093B2045093B30479
:101570008CE08093B8008091AF048130E1F081303D
:1015800030F0823001F1833009F081C038C00E9410
:101590008B0A8091AF048F5F8093AF048091B00479
:1015A0009091B104A091B204B091B30488509E4EC2
:1015B000AF4FBF4F1BC00E9463098091AF048F5F84
:1015C0008093AF0408950E947C0A8091AF048F5FDE
:1015D0008093AF048091B0049091B104A091B204C3
:1015E000B091B3048055994CAF4FBF4F8093B00476
:1015F0009093B104A093B204B093B30408950E94F1
:101600006F090E9441066091B4047091B504809105
:10161000B6049091B7040E94452720E836EE45ECC9
:1016200057E40E94AA2621EB3CED42E45EE30E94CF
:1016300076289B01AC0160E070E080E89FE30E94A7
:10164000422620ED38E447E85AE40E9413280E941D
:10165000122760933F047093400480934104909359
:1016600042041092AF048091B0049091B104A09113
:10167000B204B091B30488579C4EAF4FBF4F8093D4
:10168000B0049093B104A093B204B093B30408954E
:101690006AE070E080E090E00E944D250E9492098F
:1016A0000E948B0A65E070E080E090E00E944D258A
:1016B0000E94630908950F931F93CF93DF93082F20
:1016C000162F0E944D09812F0E944509802F8F5FA0
:1016D0000E944D09C8EAD1E00E943D09899381E04A
:1016E000CD3AD807C9F70E942C098883DF91CF91A2
:1016F0001F910F91089580910E0490910F04909383
:101700005D0480935C048CE363E00E945B0B20919A
:101710000E0430910F0430935F0420935E04809197
:101720005C0490915D048217930749F08091430413
:1017300090914404019690934404809343049091C3
:10174000A80180E02091A90130E0822B932B909397
:10175000DD038093DC039091AC0180E02091AD012A
:1017600030E0822B932B9093DF038093DE039091E4
:10177000AA0180E02091AB0130E0822B932B909561
:1017800081959F4F9093E1038093E003089564E671
:1017900070E080E090E00E944D258CE360E041E73E
:1017A0000E94F80962E370E080E090E00E944D251D
:1017B0008CE361E040E60E94F8098CE362E041E0DE
:1017C0000E94F80964E670E080E090E00E944D25F8
:1017D0000E947B0B6AE070E080E090E00E944D2563
:1017E0002091DC033091DD0337FF03C03095219554
:1017F0003F4FB901882777FD8095982F0E94452794
:101800009B01AC0160E070E08AE794E40E94AA26A4
:1018100060932C0170932D0180932E0190932F01E2
:101820002091DE033091DF0337FF03C0309521950F
:101830003F4FB901882777FD8095982F0E94452753
:101840009B01AC0160E070E08AE794E40E94AA2664
:101850006093300170933101809332019093330192
:101860002091E0033091E10337FF03C030952195CB
:101870003F4FB901882777FD8095982F0E94452713
:101880009B01AC0160E070E08AE794E40E94AA2624
:101890006093340170933501809336019093370142
:1018A0008CE360E040E70E94F8098CE361E040E2ED
:1018B0000E94F8098CE362E040E00E94F80981E0B0
:1018C00080936004089568EC70E080E090E00E94EE
:1018D0004D252C9A64E670E080E090E00E944D2552
:1018E000449845981092B9008CE08093B80084E049
:1018F0008093BC0064E670E080E090E00E944D259B
:101900000E940A0A0E94480B0E94C70B0E94320ADA
:10191000609158047091590480E090E00E94432740
:1019200025E733E948ED5EE30E9413280E94122761
:1019300070935B0460935A0408958CE08093B80020
:1019400080910E0490910F049093800480937F0403
:1019500080ED6DE10E945B0B20910E0430910F042D
:10196000309382042093810480917F0490918004BD
:101970002817390749F08091450490914604019653
:1019800090934604809345049091AA0180E02091B1
:10199000AB0130E0822B932B64E070E00E94332A8D
:1019A00070938404609383049091A80180E0209157
:1019B000A90130E0822B932B64E070E00E94332A6F
:1019C000709561957F4F7093860460938504909124
:1019D000AC0180E02091AD0130E0822B932B64E0DC
:1019E00070E00E94332A709561957F4F7093880450
:1019F000609387040E947D0808951F920F920FB68E
:101A00000F9211240F931F932F933F934F935F9344
:101A10006F937F938F939F93AF93BF93EF93FF93B6
:101A200019B100913D050127789410933D050E945E
:101A30002725AB01E02FF0E0DF01A470B07002FFBA
:101A400018C012FD12C080914205909143059A0181
:101A5000281B390BC901855893408351954048F4A0
:101A600030930D0120930C0104C0709343056093E3
:101A70004205E4FF18C014FD12C080914605909104
:101A800047059A01281B390BC9018558934083519A
:101A9000954048F4309311012093100104C05093F5
:101AA000470540934605E5FF18C015FD12C080911B
:101AB0004805909149059A01281B390BC9018558A1
:101AC00093408351954048F43093130120931201C1
:101AD00004C05093490540934805E6FF18C016FD21
:101AE00012C080914A0590914B059A01281B390B31
:101AF000C901855893408351954048F430931501AE
:101B00002093140104C050934B0540934A0507FFEE
:101B100018C017FD12C080914C0590914D059A0197
:101B2000281B390BC901855893408351954048F4CF
:101B3000309317012093160104C050934D05409334
:101B40004C05AB2BA1F08091A6019091A701459780
:101B500054F08091A6019091A70144979093A7011A
:101B60008093A60104C01092A7011092A601FF91D4
:101B7000EF91BF91AF919F918F917F916F915F9105
:101B80004F913F912F911F910F910F900FBE0F908A
:101B90001F9018952F923F924F925F926F927F9273
:101BA0008F929F92AF92BF92CF92DF92EF92FF926D
:101BB0000F931F93DF93CF93CDB7DEB72C970FB65C
:101BC000F894DEBF0FBECDBF0E9427257B018C019C
:101BD0008091E2059091E305B701681B790B80E0E5
:101BE00090E00E94432729E53BE34EEA51E30E943F
:101BF00013283B014C01F092E305E092E2052E012F
:101C00000894411C511C54EEE52E55E0F52EAA24F3
:101C1000BB24650100E010E0F801ED57FB4F608147
:101C20007181882777FD8095982F0E944527A40110
:101C300093010E941328F201619371938193919310
:101C40002F01F70180819181F801E357FB4F20813B
:101C50003181280F391F44E0959587954A95E1F722
:101C6000281B390BF701219331937F0184E03595CF
:101C700027958A95E1F7F801E053FC4F31832083E3
:101C8000442737FD4095542FCA01B9010E94F42919
:101C9000A60EB71EC81ED91E0E5F1F4F06301105B7
:101CA00009F0BACFE0905804F090590486EF95E01F
:101CB0008E010F5F1F4FB8010E94A6028AEE95E0C9
:101CC000B8010E94A60220915A0430915B048091D1
:101CD000D0039091D10397FF03C0909581959F4FBA
:101CE00082179307BCF48091D2039091D30397FF9E
:101CF00003C0909581959F4F821793075CF4809164
:101D0000D4039091D5031816190624F481E080932A
:101D10003C0102C010923C0100E010E0C601B50198
:101D200024E630E040E050E00E94F4295B016C01C1
:101D3000C801B701A80197010E94F4299B01AC01D9
:101D4000C601B5010E94682A2552304040405040EB
:101D50002F3931054105510548F410EDA12E13E04E
:101D6000B12EB6EFCB2EB5E0DB2E05C080913C0145
:101D7000882399F72EC0F601608171818281938159
:101D800020E030E04BE953E40E9413287B018C01F2
:101D9000F501619171915F01882777FD8095982FFA
:101DA0000E9445279B01AC01C801B7010E94432650
:101DB00028E03AEB42E55BE30E941328F6016193C9
:101DC0007193819391936F01F6EDAF16F3E0BF0627
:101DD00091F6AAEECA2EA5E0DA2EFCEDAF2EF3E0C6
:101DE000BF2EF601608171818281938120E030E015
:101DF00048E453E40E9413287B018C01F5016191B2
:101E000071915F01882777FD8095982F0E94452763
:101E10009B01AC01C801B7010E9443262EE536E0C4
:101E200043EA5BE30E941328F60161937193819367
:101E300091936F01F6EFCF16F5E0DF0691F6A090D3
:101E4000F605B090F705C090F805D090F905E09040
:101E5000FE05F090FF050091000610910106C601F5
:101E6000B501A80197010E94080290931104809384
:101E700010042090FA053090FB054090FC0550902E
:101E8000FD05C201B101A80197010E9408029093CB
:101E90001304809312046090F2057090F305809013
:101EA000F4059090F505C601B501A40193010E94C7
:101EB00013285B016C01C801B7012091EA0530913C
:101EC000EB054091EC055091ED050E9413289B0114
:101ED000AC01C601B5010E9442265B016C01C8013C
:101EE000B7012091EE053091EF054091F00550913A
:101EF000F1050E9413287B018C01C201B101A401EC
:101F000093010E9413289B01AC01C801B7010E94F4
:101F100042269B01AC01C601B5010E9408026AE09D
:101F200070E00E94332A7093E7036093E6032C96D7
:101F30000FB6F894DEBF0FBECDBFCF91DF911F91DA
:101F40000F91FF90EF90DF90CF90BF90AF909F9058
:101F50008F907F906F905F904F903F902F9008955B
:101F60008091000161E00E940D268091010161E0F5
:101F70000E940D268091020161E00E940D26809151
:101F8000030161E00E940D26E0E8F0E080818068B6
:101F90008083808180628083E0EBF0E080818068D4
:101FA000808380818062808384E893E09093E9035A
:101FB0008093E8039093EB038093EA039093ED03FF
:101FC0008093EC039093EF038093EE0380E790E01F
:101FD000909389008093880090938B0080938A006F
:101FE0008093B30080E78093B4006CE271E080E0FE
:101FF00090E00E944D250895EF92FF920F931F935A
:10200000CF93DF93182F589886E690E00E94A6257C
:1020100001E0C0E0D0E0E12EFF24802F90E08E218F
:102020009F21892B11F0589A01C0589886E690E0BC
:102030000E94A625000F2196C830D10571F7589A45
:1020400086E690E00E94A625DF91CF911F910F9127
:10205000FF90EF900895813029F48EEF0E94FC0FDD
:1020600080E804C08EEF0E94FC0F80EC0E94FC0F01
:1020700008958EEF0E94FC0F81E00E94FC0F6AE041
:1020800070E080E090E00E944D258EEF0E94FC0FF2
:1020900082E00E94FC0F6AE070E080E090E00E9425
:1020A0004D250895CF93DF93EC0103C021960E9444
:1020B000FC0F88818823D1F7DF91CF91089584E1C7
:1020C0006EE141E00E944F088091C10087748093C7
:1020D000C10080E061E00E940D260E9439108CE56D
:1020E00095E069EB72E00E94AD0181E00E942B1047
:1020F0008CE595E00E94521080910C0490910D04A3
:10210000892B29F48CE595E06CEA72E004C08CE53B
:1021100095E06BE972E00E94AD0182E00E942B1015
:102120008CE595E00E9452100895AF92BF92CF9235
:10213000DF92EF92FF920F931F93CF93DF93CCE741
:10214000D1E001E01A8188819981602F70E0412FF0
:1021500050E023EF31E00E94BB01010F239621E004
:10216000C63AD20779F78091C902A82EBB24809184
:10217000C802E82EFF2400E010E06FE0C62E66E003
:10218000D62EC0E0D0E0CC9FC001CD9F900DDC9F4B
:10219000900D11244997FC01EA9DC001EB9D900D23
:1021A000FA9D900D11248C53964F8C9FB0018D9FFA
:1021B000700D9C9F700D1124882777FD8095982FB6
:1021C000A80197010E94F42922EE34E040E050E09B
:1021D0000E94682AF601219331936F012196C7303E
:1021E000D10589F6DF91CF911F910F91FF90EF906C
:1021F000DF90CF90BF90AF9008950F931F93CF9330
:10220000DF93C9E7D1E000E01A8168817981802FEE
:1022100090E0412F50E02BEF31E00E94D701010FF9
:10222000239681E0C63AD80779F70E9495108FE08F
:1022300064E141E00E944F08DF91CF911F910F911F
:1022400008951F939091AE028091AF02981709F400
:1022500030C6E091AF02F0E0E255FE4F2081909150
:10226000AE028091AF02981729F08091AF028F5F84
:102270008093AF022F3409F435C3203538F4253468
:1022800009F414C62D3409F014C607C0233509F427
:1022900006C6273509F00DC607C59091CE02E92F75
:1022A000F0E0E053FD4F20839F5F8091C10080628A
:1022B0008093C100E92FF0E0E053FD4F84E180837B
:1022C000392F3F5F8091C10080628093C100A0EDF3
:1022D000B3E0232F8C9111969C911197E22FF0E09F
:1022E000E053FD4F80832F5FE22FF0E0E053FD4F7E
:1022F00090838091C10080628093C1002F5F12960D
:1023000083E0A63DB80731F73A5FA6EDB3E0232F8F
:102310008C9111969C911197E22FF0E0E053FD4FC4
:1023200080832F5FE22FF0E0E053FD4F9083809198
:10233000C10080628093C1002F5F129683E0AC3DA4
:10234000B80731F7132F1A5FACEDB3E0212F8C9152
:1023500011969C911197E22FF0E0E053FD4F80839E
:102360002F5FE22FF0E0E053FD4F90838091C1009A
:1023700080628093C1002F5F129683E0A23EB8076F
:1023800031F71A5F6091E2037091E3038091E403F7
:102390009091E5032AE030E040E050E00E94682A96
:1023A000E12FF0E0E053FD4F20831F5FE12FF0E0CD
:1023B000E053FD4F30831F5F8091C10080628093A6
:1023C000C1008091E6039091E703E12FF0E0E05334
:1023D000FD4F80831F5FE12FF0E0E053FD4F9083BE
:1023E000312F3F5F8091C10080628093C100A1E6E0
:1023F000B1E0232F8C9111969C911197E22FF0E080
:10240000E053FD4F80832F5FE22FF0E0E053FD4F5C
:1024100090838091C10080628093C1002F5F1296EB
:1024200081E0A137B80731F7305FA8EEB3E0232F82
:102430008C9111969C911197E22FF0E0E053FD4FA3
:1024400080832F5FE22FF0E0E053FD4F9083809177
:10245000C10080628093C1002F5F129683E0A83F85
:10246000B80731F7232F205FA8EFB3E0322F8C910C
:1024700011969C911197E32FF0E0E053FD4F80837C
:102480003F5FE32FF0E0E053FD4F90838091C10068
:1024900080628093C1003F5F129684E0A830B80745
:1024A00031F7205FE22FF0E0E053FD4F8EE08083B4
:1024B0002F5F8091C10080628093C100E22FF0E025
:1024C000E053FD4F80910904880F90910A04990F01
:1024D000990F982B80910804982B80910B0482957A
:1024E000880F807E892B80832F5F8091C10080625E
:1024F0008093C10080910C0490910D04E22FF0E0D4
:10250000E053FD4F80832F5FE22FF0E0E053FD4F5B
:1025100090832F5F8091C10080628093C100809181
:102520000E0490910F04E22FF0E0E053FD4F808302
:102530002F5FE22FF0E0E053FD4F90832F5F8091FB
:10254000C10080628093C1008091100490911104B9
:10255000E22FF0E0E053FD4F80832F5FE22FF0E0A9
:10256000E053FD4F90832F5F8091C1008062809384
:10257000C1008091120490911304E22FF0E0E05327
:10258000FD4F80832F5FE22FF0E0E053FD4F9083FB
:102590008091C10080628093C1002F5FE22FF0E044
:1025A000E053FD4F83E08083922F9F5F8091C100B5
:1025B00080628093C100492F20E030E0E42FF0E0FA
:1025C000E053FD4FD901A055BD4F8C918083809180
:1025D000C10080628093C1004F5FE42FF0E0E053C0
:1025E000FD4FD901A854BD4F8C9180838091C100CB
:1025F00080628093C1004F5FE42FF0E0E053FD4F15
:10260000D901A054BD4F8C9180838091C10080621C
:102610008093C1002F5F3F4F4F5F2830310571F627
:10262000985EE92FF0E0E053FD4F8091C80280836F
:102630009F5F8091C10080628093C100E92FF0E02C
:10264000E053FD4F8091C90280839F5F8091C1005C
:1026500080628093C100E92FF0E0E053FD4F80914C
:10266000CA0280839F5F8091C10080628093C10015
:10267000E92FF0E0E053FD4F8091CB0280839F5F14
:102680008091C10080628093C100E92FF0E0E053A7
:10269000FD4F8091CC028083192F1F5F8091C10074
:1026A00080628093C100412F20E030E0E42FF0E011
:1026B000E053FD4FD901AC5EBB4F8C91808380917C
:1026C000C10080628093C1004F5FA42FB0E0A0538F
:1026D000BD4FF901E65DFB4F80818795882787957F
:1026E000F901E15EFB4F9081892B8C938091C100B1
:1026F00080628093C1002F5F3F4F4F5F2B303105C9
:10270000A9F61A5E8091350490913604E12FF0E02D
:10271000E053FD4F80831F5FE12FF0E0E053FD4F5A
:1027200090831F5F8091C10080628093C10080917F
:102730003704909138048C549F4FE12FF0E0E05320
:10274000FD4F80831F5FE12FF0E0E053FD4F90834A
:102750001F5F8091C10080628093C100E12FF0E093
:10276000E053FD4F8091390480831F5F8091C10049
:1027700080628093C100E12FF0E0E053FD4F809133
:102780003A0480831F5F8091C10080628093C10002
:10279000E12FF0E0E053FD4F10821F5F8091C100F8
:1027A00080628093C10080913B0490913C04E12FB2
:1027B000F0E0E053FD4F80831F5FE12FF0E0E05336
:1027C000FD4F90831F5F8091C10080628093C100A4
:1027D00080913D0490913E04E12FF0E0E053FD4FE5
:1027E00080831F5FE12FF0E0E053FD4F90831F5F78
:1027F0008091C10080628093C100E12FF0E0E0533E
:10280000FD4F8091CD0280831F5F8091C100806267
:102810008093C10060913F04709140048091410415
:10282000909142042AE030E040E050E00E94682AA3
:10283000E12FF0E0E053FD4F20831F5FE12FF0E038
:10284000E053FD4F30831F5F8091C1008062809311
:10285000C1008091430490914404E12FF0E0E053E3
:10286000FD4F80831F5FE12FF0E0E053FD4F908329
:102870001F5F8091C10080628093C10080914504F8
:1028800090914604E12FF0E0E053FD4F80831F5FFD
:10289000E12FF0E0E053FD4F90831F5F8091C10076
:1028A00080628093C1008091470490914804E12F99
:1028B000F0E0E053FD4F80831F5FE12FF0E0E05335
:1028C000FD4F90831F5F8091C10080628093C100A3
:1028D000E12FF0E0E053FD4F8DE480831F5F109304
:1028E000CE02D7C18091CE02E82FF0E0E053FD4F39
:1028F0002083382F3F5F8091C10080628093C100A8
:10290000A0EDB3E0232F8C9111969C911197E22FAB
:10291000F0E0E053FD4F80832F5FE22FF0E0E053C3
:10292000FD4F90838091C10080628093C1002F5F32
:10293000129683E0A63DB80731F7132F1A5FA6ED74
:10294000B3E0212F8C9111969C911197E22FF0E02A
:10295000E053FD4F80832F5FE22FF0E0E053FD4F07
:1029600090838091C10080628093C1002F5F129696
:1029700083E0AC3DB80731F71A5F6091E2037091D4
:10298000E3038091E4039091E5030E94452720E052
:1029900030E040E251E40E9413280E941227E12F08
:1029A000F0E0E053FD4F60831F5FE12FF0E0E05364
:1029B000FD4F70831F5F8091C10080628093C100D2
:1029C0008091E6039091E703E12FF0E0E053FD4FA3
:1029D00080831F5FE12FF0E0E053FD4F90831F5F86
:1029E0008091C10080628093C10080911004909119
:1029F0001104E12FF0E0E053FD4F80831F5FE12FD2
:102A0000F0E0E053FD4F90831F5F8091C100806232
:102A10008093C1008091120490911304E12FF0E0A3
:102A2000E053FD4F80831F5FE12FF0E0E053FD4F47
:102A300090838091C10080628093C100312F3F5FFD
:102A4000A8EEB3E0232F8C9111969C911197E22F61
:102A5000F0E0E053FD4F80832F5FE22FF0E0E05382
:102A6000FD4F90838091C10080628093C1002F5FF1
:102A7000129683E0A43FB80731F7632F645FA8EF95
:102A8000B3E0262F8C9111969C911197E22FF0E0E4
:102A9000E053FD4F80832F5FE22FF0E0E053FD4FC6
:102AA00090838091C10080628093C1002F5F129655
:102AB00084E0A430B80731F7645FE62FF0E0E0531C
:102AC000FD4F8EE080836F5F8091C10080628093B4
:102AD000C100E62FF0E0E053FD4F80910904880F1C
:102AE00090910A04990F990F982B80910804982BC4
:102AF00080910B048295880F807E892B80836F5F85
:102B00008091C10080628093C100E62FF0E0E05325
:102B1000FD4F8091CD0280836F5F8091C100806204
:102B20008093C100E62FF0E0E053FD4F84E1808305
:102B30006F5F8091C10080628093C100E62FF0E05A
:102B4000E053FD4F80913A0480836F5F8091C10014
:102B500080628093C100E62FF0E0E053FD4F80914A
:102B6000390480836F5F8091C10080628093C100CF
:102B70002091490430914A0440914B0450914C04F7
:102B8000E62FF0E0E053FD4F20836F5FE62FF0E08B
:102B9000E053FD4F30836F5F8091C100806280936E
:102BA000C1009A01552737FD5095452FE62FF0E0DB
:102BB000E053FD4F20836F5FE62FF0E0E053FD4FC1
:102BC00030836F5F8091C10080628093C10020914B
:102BD0004D0430914E0440914F0450915004E62F23
:102BE000F0E0E053FD4F20836F5FE62FF0E0E0530D
:102BF000FD4F30836F5F8091C10080628093C10080
:102C00009A01552737FD5095452FE62FF0E0E05308
:102C1000FD4F20836F5FE62FF0E0E053FD4F3083E0
:102C20006F5F8091C10080628093C10080915104E8
:102C300090915204E62FF0E0E053FD4F80836F5FE8
:102C4000E62FF0E0E053FD4F90836F5F8091C1006D
:102C500080628093C1008091530490915404E62FC8
:102C6000F0E0E053FD4F80836F5FE62FF0E0E0532C
:102C7000FD4F90836F5F8091C10080628093C1009F
:102C8000E62FF0E0E053FD4F8FE480836F5F6093A9
:102C9000CE028091C10080628093C1008091C1000A
:102CA00080628093C10005C18091AE029091AF0215
:102CB000891B8533C8F320E030E0E091AF02F0E0FB
:102CC000E255FE4F40819091AE028091AF0298177D
:102CD00029F08091AF028F5F8093AF02F901E05538
:102CE000FD4F4083E091AF02F0E0E255FE4F40819E
:102CF0009091AE028091AF02981729F08091AF02B7
:102D00008F5F8093AF02F901E854FD4F4083E0915B
:102D1000AF02F0E0E255FE4F40819091AE0280910B
:102D2000AF02981729F08091AF028F5F8093AF02B6
:102D3000F901E054FD4F40832F5F3F4F28303105AC
:102D400009F0BBCFE091AF02F0E0E255FE4FE08129
:102D50009091AE028091AF02981729F08091AF0256
:102D60008F5F8093AF02E093C802E091AF02F0E082
:102D7000E255FE4FE0819091AE028091AF0298172C
:102D800029F08091AF028F5F8093AF02E093C90278
:102D9000E091AF02F0E0E255FE4FE0819091AE028B
:102DA0008091AF02981729F08091AF028F5F8093D6
:102DB000AF02E093CA02E091AF02F0E0E255FE4FAD
:102DC000E0819091AE028091AF02981729F0809136
:102DD000AF028F5F8093AF02E093CB02E091AF022E
:102DE000F0E0E255FE4FE0819091AE028091AF029B
:102DF000981729F08091AF028F5F8093AF02E09324
:102E0000CC0220E030E0E091AF02F0E0E255FE4F6E
:102E100040819091AE028091AF02981729F0809185
:102E2000AF028F5F8093AF02F901EC5EFB4F4083EE
:102E3000E091AF02F0E0E255FE4F40819091AE028A
:102E40008091AF02981729F08091AF028F5F809335
:102E5000AF02F901E15EFB4F40832F5F3F4F2B3004
:102E6000310589F68091AF029091AE028091AF0258
:102E7000981729F08091AF028F5F8093AF02809105
:102E8000AF029091AE028091AF02981729F0809125
:102E9000AF028F5F8093AF020E94FD100AC080E9ED
:102EA00091E0909356048093550403C081E0809391
:102EB00057041F9108958F929F92AF92BF92CF9225
:102EC000DF92EF92FF920F931F93CF93DF932091A6
:102ED00061043091620440916304509164048091D4
:102EE0007B0490917C04A0917D04B0917E0428170E
:102EF00039074A075B0708F443C1205639474E4F4C
:102F00005F4F20937B0430937C0440937D04509367
:102F10007E048CE08093B8000E947B0B6091DC0300
:102F20007091DD03882777FD8095982F0E944527B3
:102F300020912C0130912D0140912E0150912F01B3
:102F40000E9413280E9412275B016C014B017093B1
:102F5000DD036093DC036091DE037091DF0388275B
:102F600077FD8095982F0E94452720913001309160
:102F7000310140913201509133010E9413280E9487
:102F800012277B018C01EB017093DF036093DE035A
:102F90006091E0037091E103882777FD8095982F79
:102FA0000E9445272091340130913501409136012E
:102FB000509137010E9413280E9412279B01AC01F7
:102FC0003093E1032093E003809157048130B1F501
:102FD00080917B0490917C04A0917D04B0917E044B
:102FE0008093770490937804A0937904B0937A0443
:102FF0001092660410926504B0927204A09271045B
:10300000B0926C04A0926B04109268041092670452
:10301000F0927404E0927304F0926E04E0926D04F6
:1030200010926A0410926904309376042093750418
:103030003093700420936F041092570480916004C1
:103040008823F1F08091650490916604881A990AAA
:103050009092DD038092DC03809167049091680474
:10306000C81BD90BD093DF03C093DE0380916904A2
:1030700090916A04681B790B7093E1036093E003FD
:1030800020917704309178044091790450917A042A
:10309000211531054105510509F472C080917B0469
:1030A00090917C04A0917D04B0917E04821B930BCF
:1030B000A40BB50B8058934CA94CB14008F51D9A50
:1030C000CCEDD3E0A1E7B4E0EBE6F4E02881398170
:1030D0008D919C911197281739071CF411963C93F8
:1030E0002E93808191818217930714F4318320837A
:1030F00022961296329683E0C23ED80739F740C036
:1031000010927704109278041092790410927A0445
:10311000809171049091720420916B0430916C0441
:10312000820F931F62E070E00E94332A709366045E
:1031300060936504809173049091740420916D04F0
:1031400030916E04820F931F62E070E00E94332A78
:10315000709368046093670480916F049091700489
:103160002091750430917604820F931F62E070E025
:103170000E94332A70936A04609369040E94FD10D0
:10318000DF91CF911F910F91FF90EF90DF90CF9043
:10319000BF90AF909F908F9008950F931F93CF9300
:1031A000DF9360915504709156046115710509F41F
:1031B0007DC0E2ECF4E0CDE8D4E008EB14E081E07F
:1031C0006039780721F410821182128213822881DB
:1031D0003981442737FD4095542F80819181A28108
:1031E000B381820F931FA41FB51F81939193A19365
:1031F000B19319921992D8011D921D928D01B4E0DC
:10320000EE3CFB07E1F66130710509F046C06091C4
:10321000C2047091C3048091C4049091C50420E954
:1032200031E040E050E00E94682A3093B9042093D6
:10323000B8046091C6047091C7048091C80490914D
:10324000C90420E931E040E050E00E94682A309350
:10325000BB042093BA046091CA047091CB0480919E
:10326000CC049091CD0420E931E040E050E00E9490
:10327000682A8091580490915904281B390B309387
:10328000BD042093BC041092BF041092BE0410929F
:10329000C1041092C0040E94FD10809155049091C9
:1032A00056040197909356048093550480918D04A1
:1032B00090918E042091B8043091B904821B930B35
:1032C00090938E0480938D0480918F04909190044C
:1032D0002091BA043091BB04821B930B909390040D
:1032E00080938F0480919104909192042091BC046A
:1032F0003091BD04821B930B9093920480939104B0
:10330000DF91CF911F910F9108958CE08093B800C9
:1033100080910E0490910F0490938A048093890405
:1033200080E862E00E945B0B20910E0430910F0454
:1033300030938C0420938B048091890490918A04AB
:103340002817390749F08091470490914804019665
:1033500090934804809347049091A90180E02091C4
:10336000A80130E0822B932B60E170E00E94332AA9
:10337000709561957F4F70938E0460938D0490914A
:10338000AB0180E02091AA0130E0822B932B60E119
:1033900070E00E94332A709561957F4F709390047E
:1033A00060938F049091AD0180E02091AC0130E0FA
:1033B000822B932B60E170E00E94332A7093920479
:1033C000609391040E94CD180895FF920F931F936C
:1033D0000E945F10FF248AE064E141E00E944F08F0
:1033E0008CE595E06AE872E00E94AD018DE695E01B
:1033F0006CE575E00E94B40103E0F09E80011124A9
:10340000000F111FF801EA52FE4F659174918CE58F
:1034100095E00E94AD01F801E652FE4FA591B491EE
:10342000F801E852FE4F85919491ED91FC9111972E
:103430000190F081E02D13966C91139712964C91A8
:1034400009950E94391081E00E942B108CE595E0CF
:103450000E94521082E00E942B108DE695E00E949F
:10346000521020E030E08FB7F894F901EF58FE4F8A
:10347000E081F0E0EE0FFF1FE85FFE4F0190F0816A
:10348000E02D8FBF789447E0ED36F40710F082E02E
:1034900001C080E0D901A258BA4F90E0EC54F4404A
:1034A00008F491E0892B8C932F5F3F4F2330310537
:1034B000D1F680918005982F80FF04C080917F0510
:1034C00081FD5DC091FF06C080917F0581FF02C034
:1034D00002E056C080917F0580FF06C0F39489E129
:1034E0008F1508F477CF77CF81FF08C0FA944FEF9C
:1034F000F41609F070CF39E1F32E6DCF80917E057F
:1035000080FF1AC083E0F89EC0011124880F991F24
:10351000FC01E652FE4FA591B491FC01E852FE4F2A
:1035200085919491ED91FC91119714966C91619510
:103530000280F381E02D1AC081FF93CF83E0F89ED3
:10354000C0011124880F991FFC01E652FE4FA5917E
:10355000B491FC01E852FE4F85919491ED91FC915C
:1035600011970280F381E02D14966C910995FF204C
:1035700009F031CF8091B0028093B1022CCF00E0EE
:1035800084E16EE141E00E944F080E94391081E021
:103590000E942B10002369F48CE595E060E872E04E
:1035A0000E94AD018CE595E00E9452100E94FD1032
:1035B0000AC08CE595E067E772E00E94AD018CE5FA
:1035C00095E00E94521082E00E942B108CE595E05D
:1035D00062E772E00E94AD018CE595E00E94521016
:1035E00080E040E052EC61E070E00E9407081F912B
:1035F0000F91FF900895DF93CF930F92CDB7DEB771
:10360000CE01019660E070E041E050E023EF31E050
:103610000E94BB01998180913D01981709F45CC01B
:1036200028E22093B0029EE19093B80287E1809354
:10363000C0022093B1029093B9028093C10285E544
:103640008093B2021092BA021092C20280E180937B
:10365000B3029FE09093BB0287E08093C30282E3B2
:103660008093B5021092BD029093C5021092B402ED
:103670001092BC021092C4028AE58093B6029DE2C9
:103680009093BE0284E68093C6022093B702909383
:10369000C80281E48093C9021092CA021092CB0240
:1036A0001092CC0280E090E0FC01EC5EFB4F1082B7
:1036B000FC01E15EFB4F108201968B309105A1F772
:1036C0001092BF041092BE041092C1041092C00464
:1036D00010920E060E94FD100F90CF91DF91089579
:1036E00080E040E052EC61E070E00E9407088DE06D
:1036F00061E00E940D268CE061E00E940D2688E0CA
:1037000061E00E940D262C980E94B00F0E94951037
:103710000E94FB1A84EF8BB9EDE6F0E08081846FA4
:10372000808384E0809368000E94630C0E942725B8
:10373000709321066093200680E991E09093CF0476
:103740008093CE04EAE7F0E080818460808380810A
:103750008D7F808380818E7F808308952F923F921A
:103760004F925F926F927F928F929F92AF92BF9291
:10377000CF92DF92EF92FF920F931F93DF93CF933D
:1037800000D000D000D0CDB7DEB78090FE0390907F
:10379000FF032CED821625E0920614F444E61CC0CB
:1037A0002091CC0230ED831637E093069CF4C401DF
:1037B0008C5D954030E0AC01429FC001439F900D6D
:1037C000529F900D112464EF71E00E941F2A44E67D
:1037D000461B02C044E6421B8091CA02282E3324B5
:1037E0008091CB02482E552488EF682E83E0782EF6
:1037F00004E5A02E05E0B02ECC24DD24F301E0800A
:10380000F180FDEDEF16F5E0FF0634F020EDE21655
:1038100027E0F20644F40CC08CED95E08E199F0968
:10382000845F91402CF064EF71E07E836D830FC064
:103830007DEDE71675E0F70624F0C7018C5D954035
:1038400004C08CED95E08E199F099E838D8382E0E4
:10385000C81609F449C08D819E8164E670E00E941B
:103860001F2AFB01EE0FFF1FE15FF94F008111815D
:10387000FB01EE0FFF1FEF5EF94F20813181201B0E
:10388000310BFB0164E670E0E69FC001E79F900DFD
:10389000F69F900D1124ED81FE81E81BF90B2E9F00
:1038A000C0012F9F900D3E9F900D11240E941F2A52
:1038B000060F171FF501118300832D813E81229D84
:1038C000C001239D900D329D900D112464EF71E095
:1038D0000E941F2A84E6861B849FC001112464E68F
:1038E00070E00E941F2A13C02D813E81F5013183B3
:1038F0002083249DC001259D900D349D900D1124A1
:1039000064EF71E00E941F2A34E6361B632F062FF6
:1039100010E09601235D394FF601E055FD4F80819F
:1039200090E0BC01069FC001079F900D169F900D6F
:10393000112464E670E00E941F2AF9016083960159
:10394000205D394FF601E054FD4F808190E0BC01CD
:10395000069FC001079F900D169F900D112464E6ED
:1039600070E00E941F2AF9016083FCEDEF16F5E07C
:10397000FF0644F4F50180819181909581959F4FD8
:10398000918380830894C11CD11C22E030E0620E38
:10399000731EA20EB31E33E0C316D10409F02ECF5E
:1039A000B401882777FD8095982F22E533E040E029
:1039B00050E00E94F429685574448E40904024E8F9
:1039C00033E040E050E00E94682A22583B4F309399
:1039D0005B0520935A0580912706882309F473C05C
:1039E0006091E6037091E70320912206309123064F
:1039F000621B730B882777FD8095982F0E944527BF
:103A000029E33AEF4EE85CE30E9413287B018C0126
:103A1000C8010E94A72669837A838B839C83B701A0
:103A2000C8010E94C2281B012C01609156057091AB
:103A30005705882777FD8095982F0E9445273B01E1
:103A40004C016091540570915505882777FD80954C
:103A5000982F0E9445275B016C0129813A814B8197
:103A60005C810E9413287B018C01C401B301A20177
:103A700091010E9413289B01AC01C801B7010E946B
:103A800042260E9412277093550560935405C40185
:103A9000B30129813A814B815C810E9413287B010B
:103AA0008C01C601B501A20191010E9413289B015E
:103AB000AC01C801B7010E9443260E9412277093EF
:103AC00057056093560580916A068F5F80936A065A
:103AD00066E00E94132A992329F51091680681E176
:103AE0000E94EB25E12FF0E0E770F070EE0FFF1F72
:103AF000E85AF94F918380831F5F10936806E8E5C9
:103B0000F6E020E030E081919191280F391F46E0E6
:103B1000E836F407C1F7C90161E470E00E941F2A8A
:103B20006093CD0280913404882311F087E015C0A2
:103B30009091CD02892F80518C3530F0109269061A
:103B40001092570628980BC0983610F081E005C0F7
:103B5000943610F082E001C084E0809369066091A1
:103B60006906662309F441C080915706E09061041C
:103B7000F0906204009163041091640420916F0638
:103B8000309170064091710650917206882369F059
:103B900020573F424C4F5F4F2E153F0540075107BE
:103BA00020F510925706289818C080E894E8AEE1F6
:103BB000B0E004C0B595A795979587956A95D2F71B
:103BC000820F931FA41FB51F8E159F05A007B10775
:103BD00060F481E080935706289AE0926F06F09295
:103BE00070060093710610937206809155049091AF
:103BF0005604892B31F48091CE049091CF04892B07
:103C000011F01D9A09C080912406813009F42D9885
:103C100080910B0481112D9A2091610430916204EE
:103C2000409163045091640480916B0690916C06FE
:103C3000A0916D06B0916E0682179307A407B50791
:103C4000B8F480913C01882381F4109224061D9AD7
:103C5000205E3E45484F5F4F20936B0630936C06C5
:103C600040936D0650936E0603C081E08093240656
:103C70000E94211126960FB6F894DEBF0FBECDBF6D
:103C8000CF91DF911F910F91FF90EF90DF90CF9038
:103C9000BF90AF909F908F907F906F905F904F906C
:103CA0003F902F900895CF92DF92EF92FF920F9363
:103CB0001F93DF93CF9300D000D000D0CDB7DEB7F5
:103CC0000E9485190E94CA0D0E949D0C8091830458
:103CD000909184049A8389838091850490918604CD
:103CE0009C838B8380918704909188049E838D832D
:103CF0000E942725609304067093050680930606AC
:103D0000909307060E94AE1B0E942725209104066F
:103D1000309105064091060650910706621B730B11
:103D2000840B950B6B5872408040904050F080910E
:103D30000206909103060196909303068093020673
:103D400013C00E942725209104063091050640915A
:103D5000060650910706621B730B840B950B6A587D
:103D600072408040904068F30E949D0C98E0E92EDC
:103D700096E0F92E00E010E06E010894C11CD11C01
:103D8000F601E00FF11FD801AD57BB4F2081318103
:103D90008D919C91280F391FF801EA52FC4FD701F1
:103DA0008D919C910196820F931F63E070E00E94B9
:103DB000332A71836083C90162E070E00E94332A74
:103DC000F701619371937F010E5F1F4F063011055C
:103DD000B9F626960FB6F894DEBF0FBECDBFCF91D1
:103DE000DF911F910F91FF90EF90DF90CF9008959A
:103DF0002F923F924F925F926F927F928F929F92FB
:103E0000AF92BF92CF92DF92EF92FF920F931F93E8
:103E1000DF93CF93CDB7DEB76D970FB6F894DEBFC3
:103E20000FBECDBF209161043091620440916304C4
:103E3000509164048091360690913706A09138061F
:103E4000B091390682179307A407B50708F0D9C2C5
:103E5000205E314B4F4F5F4F20933606309337062D
:103E600040933806509339060E94BF058091A60101
:103E70009091A701C39764F180910B04813041F5C3
:103E80008CED95E09093F9038093F8039093FB03F6
:103E90008093FA039093FD038093FC0386E495E0FE
:103EA0009093FF038093FE038091A6019091A70158
:103EB0008B51944024F010920B0410921D068091B7
:103EC0001E0690911F06019690931F0680931E0672
:103ED0008091A6019091A70101969093A7018093EC
:103EE000A6018091FE039091FF0334E08C34930788
:103EF0000CF0BBC010923F0610923E061092410695
:103F000010924006109243061092420610923B0611
:103F100010923A0610923D0610923C0640915606C9
:103F20004F5F409356062091FC033091FD0354E00F
:103F30002C343507ACF48091FA039091FB038C5438
:103F4000944074F480910B04882351F4443109F0B7
:103F5000B3C080E991E09093CF048093CE04ACC0CD
:103F600077E02D363707BCF08091FA039091FB0380
:103F70008D56974084F080910B04882361F444317E
:103F800009F09AC00E94E5190E9427257093210626
:103F90006093200691C080911904882321F48091B8
:103FA00024048823E1F080912F04882381F08091FC
:103FB0001D06882361F081E080930B048091E60365
:103FC0009091E7039093230680932206FDC0809191
:103FD0000B04882309F4F8C010920B04F5C0B4E078
:103FE0002C343B073CF08091F8039091F9038C54FA
:103FF000944054F480910B04813031F4443109F041
:104000005BC010920B0458C02D56374044F4809189
:10401000F8039091F9038D5697400CF4D5C0809128
:10402000FA039091FB038C5697400CF0CDC0809121
:104030000B04882309F0C8C08091CE049091CF046E
:10404000892B09F0C1C080912406813009F0BCC0E1
:10405000443191F580930B048091E6039091E7033E
:10406000909323068093220627C08D56974024F113
:1040700080910B04882301F52091FC033091FD030E
:1040800054E02C3435070CF054C08091FA03909121
:10409000FB038C5494400CF04CC080915606843144
:1040A00031F480E991E09093560480935504809117
:1040B00056068F5F80935606A0900004B0900104CE
:1040C000C501855195409F8B8E8BC0900204D09086
:1040D0000304D601A551B540BD8BAC8B6624772473
:1040E000B4E1AB16B5E0BB061CF4B1E06B2E712C4D
:1040F000E0900404F0900504ABEE2A2EAAEF3A2ECD
:104100002E0C3F1C0091060410910704EBEEFAEF11
:10411000E00FF11FFD8FEC8F88249924F4E1EF1656
:10412000F5E0FF061CF4F1E08F2E912CA0E0B0E04A
:104130004EC02D56374084F08091FA039091FB03D6
:104140008C5494404CF480915606843109F0AFCFE2
:1041500081E080935704ABCF8091FA039091FB03E9
:1041600067E08D36960734F08091C0049091C104C9
:10417000029608C08C54944054F48091C0049091ED
:10418000C10402979093C1048093C0041AC0809127
:10419000F8039091F903A7E08D369A0734F08091E7
:1041A000BE049091BF04029608C08C54944064F4FD
:1041B0008091BE049091BF0402979093BF048093B6
:1041C000BE040E94FD1078CF1092560675CFEE897E
:1041D000FF89EF58F14018F020E030E002C022E003
:1041E00030E045EAA41646E0B4061CF41B8E1A8E95
:1041F00004C064E070E07B8F6A8F74E1C71675E0DD
:10420000D7061CF060E070E002C068E070E08C89C6
:104210009D898F58914018F040E050E002C040E185
:1042200050E0F5EACF16F6E0DF061CF480E090E0FF
:1042300002C080E290E0262937294A8C5B8C242931
:104240003529262B372B242B352B282B392BFD01F9
:10425000EC5EFB4F808190E028233923232B09F06B
:1042600048C02FE8221621E0320618F020E030E0A6
:1042700002C022E030E045EAE41646E0F4061CF411
:10428000198E188E04C064E070E0798F688F75E035
:10429000043117071CF0E0E0F0E002C0E8E0F0E0D5
:1042A0008C8D9D8D8F58914018F060E070E002C0B9
:1042B00060E170E056E0053A15071CF480E090E0FC
:1042C00002C080E290E040E028293929488C598CCE
:1042D000242935292E2B3F2B262B372B282B392B06
:1042E000FD01E15EFB4F808190E028233923232BE1
:1042F00009F041E0FD01E65DFB4F40831196AB30D4
:10430000B10509F064CF80912A04882339F48091A3
:10431000A6019091A701C3970CF44EC380910804A5
:10432000882359F410923B0610923A0610923D06EB
:1043300010923C0681E08093080480912F0488232A
:1043400019F481E080931D0680912B04882341F1AC
:1043500080910904882331F581E0809309048091DC
:10436000E2039091E303A091E403B091E50380930D
:10437000830590938405A0938505B093860580916D
:104380005A0590915B059093350680933406109200
:10439000880510928705109282051092810502C04F
:1043A0001092090480912C04882381F080910A04E2
:1043B000882371F481E080930A048091E603909150
:1043C000E703909326068093250602C010920A0404
:1043D00080913304882341F080912706882331F4AB
:1043E00081E08093270602C0109227068091320454
:1043F000882321F081E08093280623C010922806AC
:1044000020C080913306813071F082301CF4882303
:1044100021F015C0823099F40CC081E080933306FE
:104420000E945B170EC082E0809333060E949A0AB6
:1044300008C083E0809333060E945C0302C01092A0
:1044400033060E94531E0E942725609361047093D7
:10445000620480936304909364049B01409120065E
:1044600050912106241B350B30930D0420930C042E
:104470007093210660932006E0915805F09159054C
:10448000CF018B5B9F4F8B38910598F580910A0483
:10449000882379F12091E6033091E7038091250686
:1044A00090912606281B390B4FEF2D34340714F456
:1044B00028593E4F243B310514F028563140809155
:1044C0003C018823F1F08091B70290E0BC01269F67
:1044D000C001279F900D369F900D112462EE7FEF53
:1044E0000E94332AE60FF71FF0935905E093580511
:1044F00008C08091E6039091E7039093260680938D
:10450000250680910904882311F120915A053091E4
:104510005B058091340690913506281B390B37FFD7
:1045200003C0309521953F4F2531310514F010928D
:104530000904809181059091820520913406309183
:104540003506820F931F90935B0580935A057091F7
:10455000080479838091B602282F30E040E050E0D3
:10456000288B398B4A8B5B8B40E356E05F874E8705
:1045700060E576E07D876C878AE496E09B878A8792
:10458000A4E4B6E0B987A887EDE2F6E0FF83EE8306
:1045900026ED33E03D832C83EAE32E2EE6E03E2E2B
:1045A0007EE3872E76E0972E40EB52E05B834A83D2
:1045B00064E5462E65E0562E66247724AA24BB24A3
:1045C0005981513009F083C062E0661609F47FC05A
:1045D000D2012D913C91220F331FF501E75DF94F78
:1045E00080819181281B390BB1E0253F3B0714F0F6
:1045F00024EF31E0F501E254FB4FD501A05FBB4F42
:104600000190F081E02D8D919C91E81BF90BB9018F
:104610002EEF6C30720714F46CE07EEF8F01060F02
:10462000171FB801882777FD8095982F2889398929
:104630004A895B890E94F42924E630E040E050E09A
:104640000E94682A8091C60290E06BEF7FEF869F00
:104650007001879FF00C969FF00C11242E153F05DA
:1046600064F0BC01660F771F660F771F680F791F14
:104670007901621773070CF47B01D1016D917C9174
:10468000600F711FB7E261317B0714F060E177E2E0
:104690009B01E8ED603F7E0714F420EF38EDD10177
:1046A0002D933C93B901882777FD8095982F209111
:1046B000BE0230E040E050E00E94F429BCE0959555
:1046C000879577956795BA95D1F76B016CC0F20124
:1046D000E080F180C701835A9E4FAA81BB811C9163
:1046E0008B5B924078F4E0E5F0E0EE9EC001EF9E37
:1046F000900DFE9E900D1124612F70E00E94332AD0
:10470000CB0112C0B701882777FD8095982F20E54F
:1047100030E040E050E00E94F429212F30E040E0FA
:1047200050E00E94682AC901AC81BD812D913C9165
:10473000F40160817181621B730B680F791FFEE3C6
:1047400061387F0714F060E87EE3CB0141EC60380C
:10475000740714F480E891ECD4018D939C93C90103
:1047600037FF03C0909581959F4F815892401CF070
:10477000F40111821082F301E854FD4F208130E0F2
:10478000D4018D919C916DE770E00E94332A269FA1
:104790006001279FD00C369FD00C1124A6E0D59441
:1047A000C794AA95E1F7EC81FD8100811181C801D0
:1047B00081569F4FAE81BF816C918F53914088F499
:1047C000862F90E0FC01E09FC001E19F900DF09FDB
:1047D000900D112460EB7FEF0E94332A6E0D7F1D38
:1047E00013C070E080E090E09801442737FD4095C9
:1047F000542F0E94F42920EB3FEF4FEF5FEF0E9410
:10480000682AB701620F731F798F688FAC85BD85E9
:104810008D919C9111979801281B390B0D931C9336
:10482000EA85FB8580819181A885B985ED91FC9110
:104830001197E80FF91FE20FF31F8D939C93AA8540
:10484000BB852D933C93CF0181589D4FAE85BF858D
:104850002C918F5F944078F4822F90E0E89FB00114
:10486000E99F700DF89F700D1124F5E0759567951F
:10487000FA95E1F711C0BF01882777FD8095982F41
:1048800030E040E050E00E94F429E5E095958795FE
:1048900077956795EA95D1F7F501E25BFA4F288D98
:1048A000398D2C0D3D1D261B370B31832083089439
:1048B000611C711C42E050E0A40EB51E6E857F8520
:1048C0006F5F7F4F7F876E878C859D8502969D8762
:1048D0008C87AA85BB851296BB87AA87E885F98550
:1048E0003296F987E8872E813F812F5F3F4F3F83C4
:1048F0002E834C815D814E5F5F4F5D834C8362E010
:1049000070E0260E371E860E971E8A819B810196C7
:104910009B838A83460E571E96E0A916B10409F0C0
:104920004FCE0E9426058091E8039091E90353E061
:10493000959587955A95E1F7909389008093880023
:104940008091EA039091EB0343E0959587954A9512
:10495000E1F790938B0080938A008091EC03909113
:10496000ED0333E0959587953A95E1F78093B30091
:104970008091EE039091EF0323E0959587952A951A
:10498000E1F78093B4006D960FB6F894DEBF0FBECA
:10499000CDBFCF91DF911F910F91FF90EF90DF90EE
:1049A000CF90BF90AF909F908F907F906F905F90CF
:1049B0004F903F902F90089510920804BECC1F9204
:1049C0000F920FB60F9211242F933F938F939F93C3
:1049D000AF93BF938091770690917806A091790666
:1049E000B0917A0630917B060196A11DB11D232F4F
:1049F0002D5F2D3720F02D570196A11DB11D20935D
:104A00007B068093770690937806A0937906B093FF
:104A10007A068091730690917406A0917506B09104
:104A200076060196A11DB11D8093730690937406BE
:104A3000A0937506B0937606BF91AF919F918F9129
:104A40003F912F910F900FBE0F901F9018959FB719
:104A5000F894209173063091740640917506509138
:104A6000760686B5A89B06C08F3F21F02F5F3F4F8B
:104A70004F4F5F4F9FBF542F432F322F2227280FB6
:104A8000311D411D511D82E0220F331F441F551F50
:104A90008A95D1F7B901CA0108959B01AC017FB78E
:104AA000F8948091730690917406A0917506B09168
:104AB000760666B5A89B05C06F3F19F00196A11D4B
:104AC000B11D7FBFBA2FA92F982F8827860F911D60
:104AD000A11DB11D62E0880F991FAA1FBB1F6A9517
:104AE000D1F7BC012DC0FFB7F89480917306909167
:104AF0007406A0917506B0917606E6B5A89B05C030
:104B0000EF3F19F00196A11DB11DFFBFBA2FA92FCC
:104B1000982F88278E0F911DA11DB11DE2E0880FEF
:104B2000991FAA1FBB1FEA95D1F7861B970B885EBA
:104B30009340C8F2215030404040504068517C4F73
:104B4000211531054105510571F60895019739F098
:104B5000880F991F880F991F02970197F1F7089501
:104B6000789484B5826084BD84B5816084BD85B548
:104B7000826085BD85B5816085BDEEE6F0E080810F
:104B800081608083E1E8F0E0108280818260808330
:104B9000808181608083E0E8F0E0808181608083B3
:104BA000E1EBF0E0808184608083E0EBF0E08081E5
:104BB00081608083EAE7F0E0808184608083808187
:104BC000826080838081816080838081806880832F
:104BD0001092C1000895982F8E3008F09E50977063
:104BE000809160018295880F880F807C892B80934B
:104BF0007C0080917A00806480937A0080917A00B2
:104C000086FDFCCF2091780040917900942F80E0C0
:104C100030E0282B392BC9010895482F50E0CA01F4
:104C20008C509D4FFC01249140525D4FFA018491BC
:104C30008823C1F0E82FF0E0EE0FFF1FEE53FD4F89
:104C4000A591B491662341F49FB7F8948C91209577
:104C500082238C939FBF08959FB7F8948C91822BE9
:104C60008C939FBF0895CF93DF930E94B0250E943D
:104C7000701BC0E0D0E00E94F81E2097E1F30E9474
:104C80000000F9CF5058BB27AA270ED081C141D1CF
:104C900030F046D120F031F49F3F11F41EF436C1BC
:104CA0000EF4E095E7FB2CC1E92F94D180F3BA17FD
:104CB000620773078407950718F071F49EF5ACC17D
:104CC0000EF4E0950B2EBA2FA02D0B01B901900127
:104CD0000C01CA01A0011124FF27591B99F0593F6B
:104CE00050F4503E68F11A16F040A22F232F342FB3
:104CF0004427585FF3CF469537952795A795F04001
:104D00005395C9F77EF41F16BA0B620B730B840B15
:104D1000BAF09150A1F0FF0FBB1F661F771F881FCD
:104D2000C2F70EC0BA0F621F731F841F48F4879525
:104D300077956795B795F7959E3F08F0B3CF939514
:104D4000880F08F09927EE0F979587950895F0D072
:104D5000E3952FC10CD01CC1E3D040F0DAD030F085
:104D600021F45F3F19F0CCC0511157C1CFC032D1EF
:104D700098F39923C9F35523B1F3951B550BBB2722
:104D8000AA2762177307840738F09F5F5F4F220FCF
:104D9000331F441FAA1FA9F333D00E2E3AF0E0E8C8
:104DA00030D091505040E695001CCAF729D0FE2F14
:104DB00027D0660F771F881FBB1F261737074807A6
:104DC000AB07B0E809F0BB0B802DBF01FF2793585C
:104DD0005F4F2AF09E3F510568F092C01EC15F3FB1
:104DE000ECF3983EDCF3869577956795B795F79544
:104DF0009F5FC9F7880F911D9695879597F908953C
:104E0000E1E0660F771F881FBB1F621773078407D7
:104E1000BA0720F0621B730B840BBA0BEE1F88F7E6
:104E2000E095089504D06894B111F7C00895DAD0E0
:104E300088F09F5790F0B92F9927B751A0F0D1F083
:104E4000660F771F881F991F1AF0BA95C9F712C00D
:104E5000B13081F0E1D0B1E00895DEC0672F782F46
:104E60008827B85F39F0B93FCCF386957795679579
:104E7000B395D9F73EF490958095709561957F4FE5
:104E80008F4F9F4F0895E89409C097FB3EF490958B
:104E90008095709561957F4F8F4F9F4F9923A9F013
:104EA000F92F96E9BB279395F695879577956795A2
:104EB000B795F111F8CFFAF4BB0F11F460FF1BC0E6
:104EC0006F5F7F4F8F4F9F4F16C0882311F096E979
:104ED00011C0772321F09EE8872F762F05C0662327
:104EE00071F096E8862F70E060E02AF09A95660FE0
:104EF000771F881FDAF7880F9695879597F9089599
:104F000097F99F6780E870E060E008959FEF80EC7C
:104F1000089500240A94161617061806090608951F
:104F200000240A9412161306140605060895EECFFF
:104F300059D0E8F3E894EFEFBB273FE048EC5FE798
:104F40006B3D73078407950708F1FF279F57B25AF7
:104F50006A4D7F40894CF04032F4BE556542704F37
:104F60008643FF4F0894EE1F915030F0BB0F661F31
:104F7000771F881FFF1FEBCF9EE7882332F0BB0F00
:104F8000661F771F881F9A95C1F79395E09531C1E9
:104F9000092E0394000C11F4882352F0BB0F40F447
:104FA000BF2B11F460FF04C06F5F7F4F8F4F9F4F87
:104FB0000895EF93E0FF06C0A2EA2AED3FE049EC36
:104FC0005FEB72DEE5DF0F90039401FC9058E8E69A
:104FD000F0E044C157FD9058440F551F59F05F3F12
:104FE00071F04795880F97FB991F61F09F3F79F00B
:104FF00087950895121613061406551FF2CF46958D
:10500000F1DF08C0161617061806991FF1CF86950E
:105010007105610508940895E894BB2766277727F2
:10502000CB0197F908950BD0B3CF73DF28F078DF69
:1050300018F0952309F064CF69CF1124EECFCADFB1
:10504000A0F3959FD1F3950F50E0551F629FF0019B
:10505000729FBB27F00DB11D639FAA27F00DB11DF4
:10506000AA1F649F6627B00DA11D661F829F22277D
:10507000B00DA11D621F739FB00DA11D621F839F04
:10508000A00D611D221F749F3327A00D611D231FDA
:10509000849F600D211D822F762F6A2F11249F5728
:1050A00050408AF0E1F088234AF0EE0FFF1FBB1F4B
:1050B000661F771F881F91505040A9F79E3F5105EA
:1050C00070F01ECFAACF5F3FECF3983EDCF38695DD
:1050D00077956795B795F795E7959F5FC1F7FE2B95
:1050E000880F911D9695879597F90895FA01EE0F0F
:1050F000FF1F30962105310599F16115710561F4A5
:105100008038BFE39B0749F168949038810561F0CE
:105110008038BFEF9B0741F0992342F5FF3FE1053F
:105120003105210511F1E8940894E795D901AA23E6
:1051300029F4AB2FBE2FF85FD0F310C0FF5F70F4DF
:10514000A695E0F7F73950F019F0FF3A38F49F7759
:105150009F930CD00F9007FC905808953EF0D6CE48
:1051600060E070E080E89FE308954FE79F775F93EA
:105170004F933F932F93C5D02F913F914F915F91C4
:1051800052DF0BC09F93D4DE0F9007FCEE5F11CF70
:1051900019F40EF0B5CE40CFB9CE24DFC8F396385F
:1051A000C0F707F80F92E8942BE33AEA48EB5FE781
:1051B00048DF0F920F920F924DB75EB70F92E1D07A
:1051C000E6E8F0E026D04F915F91EF91FF91E595F1
:1051D000EE1FFF1F49F0FE57E0684427EE0F441F03
:1051E000FA95E1F74195550B53D00F9007FE47C054
:1051F00008959F3F49F0915028F4869577956795DB
:10520000B7959F5F80389F4F880F9695879597F940
:105210000895DF93CF931F930F93FF92EF92DF9246
:105220007B018C01689405C0DA2EEF0108DFFE01D6
:10523000E894A5912591359145915591AEF3EF01F3
:1052400033DDFE019701A801DA9479F7DF90EF9042
:10525000FF900F911F91CF91DF9108959F938F93AE
:105260007F936F93FF93EF939B01AC01DCDEEF9193
:10527000FF91CFDF2F913F914F915F91D4CE9B0152
:10528000AC0160E070E080E89FE364CD39CEB1CF3F
:10529000A9DEE8F39923D9F3940F511DBBF3915084
:1052A000504094F059F0882332F0660F771F881F22
:1052B00091505040C1F79E3F510544F7880F911D12
:1052C0009695879597F908955F3FACF0983E9CF0CE
:1052D000BB27869577956795B79508F4B160939548
:1052E000C1F7BB0F58F711F460FFE8CF6F5F7F4F36
:1052F0008F4F9F4FE3CF91CE0EF07BCF07CE6894B8
:10530000FFCD70DEC8F39923D1F3C6F3DF93CF93BB
:105310001F930F93FF92C92FDD2788232AF021972F
:10532000660F771F881FDAF720E030E040E85FEB78
:105330009FE3883920F0803E30F021968F77A3DC00
:10534000EEEAF0E003C09FDCEBEDF0E062DF8B0102
:10535000BE01EC01FB2E6F5771097595771F880B05
:10536000990B93DD28E132E741E35FE368DEAF2D7F
:105370009801AE01FF900F911F91CF91DF9194DCC6
:1053800007CEFA01DC01AA0FBB1F9B01AC01BF577E
:1053900028F422273327442750781FC0B75188F4B8
:1053A000AB2F0024469537952795011CA395D2F382
:1053B000002069F0220F331F441FB395DAF30DD09C
:1053C00061CC61307105A0E88A07B94630F49B01D1
:1053D000AC016627772788279078309621F02083C4
:1053E0003183428353830895629FD001739FF001FC
:1053F000829FE00DF11D649FE00DF11D929FF00D65
:10540000839FF00D749FF00D659FF00D9927729F9B
:10541000B00DE11DF91F639FB00DE11DF91FBD0126
:10542000CF0111240895991B79E004C0991F9617A4
:1054300008F0961B881F7A95C9F780950895AA1BD6
:10544000BB1B51E107C0AA1FBB1FA617B70710F06F
:10545000A61BB70B881F991F5A95A9F780959095A1
:10546000BC01CD01089597FB092E07260AD077FDD0
:1054700004D0E5DF06D000201AF4709561957F4FC7
:105480000895F6F7909581959F4F0895A1E21A2E01
:10549000AA1BBB1BFD010DC0AA1FBB1FEE1FFF1FD8
:1054A000A217B307E407F50720F0A21BB30BE40B28
:1054B000F50B661F771F881F991F1A9469F760956F
:1054C0007095809590959B01AC01BD01CF01089529
:1054D00097FB092E05260ED057FD04D0D7DF0AD042
:1054E000001C38F450954095309521953F4F4F4F13
:1054F0005F4F0895F6F790958095709561957F4F71
:105500008F4F9F4F08952F923F924F925F926F92CD
:105510007F928F929F92AF92BF92CF92DF92EF9243
:10552000FF920F931F93CF93DF93CDB7DEB7CA1BC4
:10553000DB0B0FB6F894DEBF0FBECDBF09942A88EF
:10554000398848885F846E847D848C849B84AA8497
:10555000B984C884DF80EE80FD800C811B81AA8124
:10556000B981CE0FD11D0FB6F894DEBF0FBECDBFEF
:10557000ED010895F894FFCF090A0B030605100CFE
:10558000DE05DE05DE05DE05DE05DE05DE05DE0503
:10559000DE05DE05DE05DE05DE05DE05DE05DE05F3
:1055A000DE05DE050000803F0000803F0000803FF8
:1055B00000093D0001985C010101015C0103010249
:1055C0005C010001015C010202025C010201025C5B
:1055D00001010100D804D30401DC05DC05DC05DC95
:1055E00005DC05DC05DC05DC050405060207000119
:1055F000033D0101B00208B80208C00208C8020158
:10560000C90201CA0201CB0201CC0201B80406653D
:105610000406BE040414040B1F040B0E0601FFFF56
:107800000C94343C0C94513C0C94513C0C94513CE1
:107810000C94513C0C94513C0C94513C0C94513CB4
:107820000C94513C0C94513C0C94513C0C94513CA4
:107830000C94513C0C94513C0C94513C0C94513C94
:107840000C94513C0C94513C0C94513C0C94513C84
:107850000C94513C0C94513C0C94513C0C94513C74
:107860000C94513C0C94513C11241FBECFEFD8E036
:10787000DEBFCDBF11E0A0E0B1E0ECE9FFE702C060
:1078800005900D92A230B107D9F712E0A2E0B1E065
:1078900001C01D92AD30B107E1F70E942D3D0C945F
:1078A000CC3F0C94003C982F959595959595959582
:1078B000905D8F708A307CF0282F295A8091C0000B
:1078C00085FFFCCF9093C6008091C00085FFFCCF60
:1078D0002093C6000895282F205DF0CF982F809127
:1078E000C00085FFFCCF9093C6000895EF92FF92F1
:1078F0000F931F93EE24FF2487018091C00087FD22
:1079000017C00894E11CF11C011D111D81E4E8164B
:1079100082E4F8068FE0080780E0180770F3E09132
:107920000401F091050109958091C00087FFE9CF1E
:107930008091C6001F910F91FF90EF9008950E94D3
:10794000763C982F8091C00085FFFCCF9093C600B5
:1079500091362CF490330CF09053892F089597555D
:10796000892F08951F930E949F3C182F0E949F3CCF
:107970001295107F810F1F9108951F93182F882350
:1079800021F00E94763C1150E1F71F9108951F935A
:10799000182F0E94763C803249F0809103018F5F5E
:1079A000809303018530C1F01F9108958091C0003C
:1079B00085FFFCCF84E18093C6008091C00085FFE5
:1079C000FCCF1093C6008091C00085FFFCCF80E102
:1079D0008093C6001F910895E0910401F091050184
:1079E00009951F9108950E94763C803241F0809164
:1079F00003018F5F80930301853081F008958091AA
:107A0000C00085FFFCCF84E18093C6008091C00058
:107A100085FFFCCF80E18093C6000895E0910401CA
:107A2000F09105010995089540E951E08823A1F0FE
:107A30002D9A28EE33E0FA013197F1F721503040CA
:107A4000D1F72D9828EE33E0FA013197F1F7215064
:107A50003040D1F7815061F708953F924F925F9285
:107A60006F927F928F929F92AF92BF92CF92DF924E
:107A7000EF92FF920F931F93CF93DF93000080E16B
:107A80008093C4001092C50088E18093C10086E015
:107A90008093C2005098589A259A81E00E94143D24
:107AA00024E1F22E9EE1E92E85E9D82E0FE0C02ECA
:107AB00010E1B12EAA24A394B1E49B2EA6E58A2E50
:107AC000F2E57F2EE0E26E2E79E4572E63E5462E36
:107AD00050E5352E0E94763C8033B1F18133B9F107
:107AE000803409F46FC0813409F476C0823409F41B
:107AF00085C0853409F488C0803531F1823521F1A3
:107B0000813511F1853509F485C0863509F48DC0BC
:107B1000843609F496C0843709F403C1853709F423
:107B200072C1863709F466C0809103018F5F80932C
:107B30000301853079F6E0910401F0910501099582
:107B40000E94763C803351F60E94F33CC3CF0E94E2
:107B5000763C803249F78091C00085FFFCCFF092DF
:107B6000C6008091C00085FFFCCF9092C600809136
:107B7000C00085FFFCCF8092C6008091C00085FFC9
:107B8000FCCF7092C6008091C00085FFFCCF609250
:107B9000C6008091C00085FFFCCF5092C600809146
:107BA000C00085FFFCCF4092C6008091C00085FFD9
:107BB000FCCF3092C6008091C00085FFFCCFB09210
:107BC000C60088CF0E94763C863808F4BDCF0E945C
:107BD000763C0E94F33C7ECF0E94763C803809F4CC
:107BE0009CC0813809F40BC1823809F43CC1883942
:107BF00009F48FC080E00E94C73C6CCF84E10E94F2
:107C0000BD3C0E94F33C66CF85E00E94BD3C0E94D3
:107C1000F33C60CF0E94763C809306010E94763C44
:107C2000809307010E94F33C55CF0E94763C80333D
:107C300009F41DC183E00E94BD3C80E00E94C73C66
:107C400049CF0E94763C809309020E94763C809343
:107C5000080280910C028E7F80930C020E94763C79
:107C6000853409F415C18091080290910902892B8D
:107C700089F000E010E00E94763CF801E85FFE4FDA
:107C800080830F5F1F4F80910802909109020817AF
:107C9000190788F30E94763C803209F045CF809125
:107CA0000C0280FF01C16091060170910701660F0F
:107CB000771F7093070160930601A0910802B091AD
